:02000004080AE8
:1000000000000A0870810A080000060006000501C9
:08001000040279050000000064
:04001800C0220A08F0
:10001C0009480A4908B5884205D0094A824202D0EB
:10002C00121A02F0F1F80748074A0021121A02F0DE
:10003C00F6F8064808BD00BF0000002008800A083A
:10004C004001002040010020400700204007002014
:10005C0070B501F06DFE074B074C1E46E41AA40860
:10006C000025A54204D056F8253098470135F8E70D
:10007C0070BD00BF087B0A08447B0A0800F0BEBBB9
:10008C0008B500F063FBBDE8084001F013BE00F0BA
:10009C00F3BD00F0F9BD0078B0FA80F0400970476C
:1000AC0001230370704700002DE9F04F074685B01F
:1000BC000C46154601F092FC3B46284A012100F003
:1000CC00CCFF2749384602F0DBF8064688B901F028
:1000DC0085FC244900F055FF0623ADF80830224B6F
:1000EC0040F22D12CDF80A3002AB009331461F4B73
:1000FC001CE0DFF87CB000264FF00C084FFA86FAB3
:10010C0008FB0AF25BF802100BEB020949B1384606
:10011C0002F0B6F8013601460028EFD1BAF1FF3FE4
:10012C0007D10023194600934FF4CA722846A04702
:10013C0010E00090D9F80430C8222846A047D9F81E
:10014C000840204602F0AEF80E9B02461B68214682
:10015C000E98984705B0BDE8F08F00BF63400A08C1
:10016C0074400A087B400A088C400A08A4400A081C
:10017C00000000200021014800F0F2BCB5000A0884
:10018C0000F0B4BB38B50B4B8469054603607CB1F9
:10019C006368013B63605BB9236820469B689847A2
:1001AC00A368013BA3601BB923682046DB68984712
:1001BC00284638BD88790A0810B50446FFF7E2FFD7
:1001CC0020461C2101F0B3FE204610BD73B501F092
:1001DC0005FC254900F0C2FE244D00242E1D2B6881
:1001EC009C420DDA01F0FAFB56F824100A2200F0BA
:1001FC00F1FE01F0F3FB1E4900F0B0FE0134EEE716
:10020C0001F0ECFB1B4900F0BCFE01F01DFE0422CA
:10021C006946002000F052FB009B013322D001F014
:10022C00DDFB154900F09AFE0024009B9C4214D281
:10023C0001F00AFE04220DEB0201204600F03EFB09
:10024C0001F0CCFB0A22019900F0DBFE01F0C6FBA9
:10025C00074900F083FE0834E7E701F0BFFB0549CE
:10026C0000F08FFE02B070BDC9760A080040024053
:10027C0038770A08D2760A08D6760A0830B5234AA7
:10028C0021F00F01136885B0B3F5967F41EA0001A8
:10029C000446BFBF02EB8300013313604160019140
:1002AC0001F0D2FD042202A9002000F007FB029B02
:1002BC0001330AD101F0C8FD082504A941F8045DF9
:1002CC000422002000F002FB029524F00404022C0E
:1002DC0017D80F4B029A1B68083B934211D901F0B7
:1002EC00B3FD04220DEB0201029800F0EFFA029B21
:1002FC000833029301F0A8FD042202A9002000F0AB
:10030C00E5FAFFF763FF05B030BD00BF00400240C7
:10031C006001002001F00F0110B50446062913D826
:10032C00DFE801F00406080A0C0E100009490CE085
:10033C0009490AE0094908E0094906E0094904E0CD
:10034C00094902E0094900E00949204600F03AFF5A
:10035C00204610BDE1760A08EA760A08F3760A0808
:10036C00FC760A0805770A080D770A0816770A083A
:10037C0020770A082DE9F04104468AB001F064FDAB
:10038C0004226946002000F099FA5D49204600F0ED
:10039C0019FF5C4E009A3168D308013B8B424ED852
:1003AC00B046002533689D4280F2A1805649574FD4
:1003BC00204600F06DFF564906A800F003FF57F8E1
:1003CC00251002A8FFF7A6FF02A906A800F06FFFF0
:1003DC00504900F078FF0146204600F055FF02A876
:1003EC0000F0A9FE06A800F0A6FE4B49204600F03E
:1003FC004FFF4A4906A800F0E5FE0A2257F82510DF
:10040C0002A800F016FF02A906A800F050FF44490C
:10041C0000F059FF0146204600F036FF02A800F01C
:10042C008AFE06A800F087FED8F80030013B9D42FA
:10043C0003DA3C49204600F02BFF0135B2E70132CC
:10044C0055D00825009B9D424CD201F0FDFC0422A6
:10045C000DEB0201284600F031FA2B49204600F042
:10046C0017FF2B4906A800F0ADFE019902A8FFF773
:10047C0051FF02A906A800F01AFF264900F023FF3D
:10048C000146204600F000FF02A800F054FE06A82A
:10049C0000F051FE2049204600F0FAFE1F4906A844
:1004AC0000F090FE0A22019902A800F0AFFE02A90A
:1004BC0006A800F0FCFE1A4900F005FF0146204694
:1004CC0000F0E2FE02A800F036FE06A800F033FEB3
:1004DC00009B083B9D4203D21249204600F0D8FEF7
:1004EC000835AFE701F07AFA0F4900F04AFD0F49E1
:1004FC00204600F0CDFE20460AB0BDE8F08100BFDA
:10050C00CF760A080040024028770A0804400240CF
:10051C0034770A0837770A083B770A08A3400A0899
:10052C0046770A0849770A08D2760A084B770A08F0
:10053C001FB56846FFF71EFF01F050FA009900F056
:10054C0020FD002350221D491D4801F019F950B31C
:10055C0001F044FA1B4900F014FD1B49184800F047
:10056C0010FD1A49164800F00CFD1949144800F00A
:10057C0008FD1849124800F0F1FC009801F092FEB9
:10058C000A2201460E4800F032FD0D4800F0EDFC49
:10059C0000990B4800F0F5FC094800F0E6FC08480F
:1005AC0000F09CFF04E001F019FA0B4900F0E9FCA3
:1005BC00684600F0C0FD05B05DF804FB7A770A08C8
:1005CC00440100204E770A0858770A0874770A0805
:1005DC008C770A08AB770A08BC770A0807B501F0D4
:1005EC0033FC00F07BF901F02FFC02A9082341F841
:1005FC00043D0422002000F069F901F0EFF90349F1
:10060C0000F0BFFC03B05DF804FB00BFCE770A0816
:10061C0010B5084C0021204650F8042B920001F034
:10062C00FEFD0023236001F0D9F9BDE8104002491A
:10063C0000F0A7BC00400240DF770A0810B500F0BC
:10064C0055F901F001FC00F031F9074C074B80B271
:10065C001860204601F072F82046BDE81040044AAC
:10066C00044901F05FBC00BF440100206001002080
:10067C004001002091010A08F8B50E4600F108046B
:10068C000025B54231DA34F8040C01F0B2FB012834
:10069C0001D1A37A4BB134F8040C01F0AAFB08B9D0
:1006AC00A37AB3B901351834EBE7A07254F8087C7F
:1006BC0000F0ECF801463846FFF7E0FD01F08EF94A
:1006CC00214600F04BFC01F089F9084900F059FC77
:1006DC00E1E7A07201F082F9214600F03FFC01F045
:1006EC007DF9034900F04DFCDCE7F8BDEE770A0814
:1006FC00F9770A0810B5124CA08801F07AFB012892
:10070C0005D1104B988801F074FB012812D0A088F9
:10071C0001F06FFB012812D10B4B988801F069FB9B
:10072C0001280CD1FFF704FFBDE810404FF47A709C
:10073C0000F0C2BAFFF752FFFFF76AFFE7E710BD00
:10074C0090000020A8000020C000002010B503215C
:10075C000A48FFF791FFFFF7CDFF01F03FF9084B77
:10076C000446188801F058FB0A220146204600F086
:10077C006AFCBDE81040642000F09EBA64010020C1
:10078C007000002008B5154B0121188801F020FBE2
:10079C00134B0121188801F01BFB124B0021988888
:1007AC0001F016FB104B0021988801F011FB0F4B48
:1007BC000021988801F00CFB0D4B0021988801F06A
:1007CC0007FB0C4B0121188801F002FB0A4B00219E
:1007DC001888BDE8084001F0FBBA00BF6C0000208F
:1007EC00AC0100207400002090000020A800002024
:1007FC00C00000208C00002070000020FFF7C2BF5A
:10080C0070B5124C124E254600F070F80FCE0FC585
:10081C0096E803000F4E85E803000FCE04F118058F
:10082C000FC596E8030085E803000B4D30340FCD5F
:10083C000FC495E8030084E803000121084600F08A
:10084C0015F8BDE87040FFF795BC00BF64010020AF
:10085C0090000020A8000020C000002008B5024B2A
:10086C001B681B6B019308BDD001060808B5024B31
:10087C001B685B6E019308BDB801060808B5024BF6
:10088C001B685B68019308BD9C01060808B5024B08
:10089C001B685B69019308BD9C01060808B5024BF7
:1008AC001B689B6A019308BD9C01060808B5024BA6
:1008BC001B685B6B019308BD9C01060808B5024BD5
:1008CC001B685B6C019308BD9C01060808B5024BC4
:1008DC001B689B6C019308BD9C01060808B5024B74
:1008EC001B68DB6C019308BD9C01060808B5024B24
:1008FC001B681B68019308BDB001060808B5024BC4
:10090C001B685B68019308BDB001060808B5024B73
:10091C001B689B68019308BDB001060808B5024B23
:10092C001B68DB68019308BDB001060808B5024BD3
:10093C001B685B69019308BDB001060808B5024B42
:10094C001B681B6B019308BDB001060808B5024B70
:10095C001B681B6E019308BDAC01060808B5024B61
:10096C001B685B6E019308BDAC01060808B5024B11
:10097C001B689B6E019308BDAC01060808B5024BC1
:10098C001B68DB6E019308BDAC01060808B5024B71
:10099C001B681B6F019308BDAC01060808B5024B20
:1009AC001B685B6F019308BDAC01060808B5034BCF
:1009BC001B68D3F88030019308BD0000AC01060819
:1009CC0008B5024B1B681B68019308BDBC010608E7
:1009DC0008B5024B1B685B68019308BDBC01060897
:1009EC0008B5024B1B689B68019308BDBC01060847
:1009FC0008B5024B1B68DB68019308BDBC010608F7
:100A0C0008B5024B1B681B69019308BDBC010608A5
:100A1C0008B5024B1B681B6A019308BDBC01060894
:100A2C0008B5024B1B681B6B019308BDBC01060883
:100A3C0008B5024B1B685B6C019308BDBC01060832
:100A4C0008B5024B1B68DB69019308BDB4010608AD
:100A5C0008B5024B1B681B6A019308BDB40106085C
:100A6C0008B5024B1B689B69019308BDC4010608BD
:100A7C0008B5024B1B685B6A019308BDC4010608EC
:100A8C0008B5024B1B689B6A019308BDC40106089C
:100A9C0008B5024B1B68DB6A019308BDC40106084C
:100AAC0008B5024B1B681B6B019308BDC4010608FB
:100ABC0008B5024B1B685B6B019308BDC4010608AB
:100ACC0008B5024B1B689B6B019308BDC40106085B
:100ADC0008B5024B1B681B6C019308BDC4010608CA
:100AEC0008B5024B1B681B68019308BDD8010608AA
:100AFC0008B5024B1B681B69019308BDD801060899
:100B0C0008B5024B1B685B69019308BDD801060848
:100B1C0008B5024B1B689B69019308BDD8010608F8
:100B2C0008B5024B1B68DB69019308BDD8010608A8
:100B3C0008B5024B1B681B6A019308BDD801060857
:100B4C0008B5024B1B685B6C019308BDC00106081D
:100B5C0008B5024B1B689B6C019308BDC0010608CD
:100B6C0008B5024B1B685B6E019308BDC0010608FB
:100B7C0008B5024B1B681B6D019308BDA801020848
:100B8C0008B5024B1B685B68019308BDA4010608FD
:100B9C0008B5024B1B685B69019308BDA4010608EC
:100BAC0008B5034B1B68D3F89030019308BD0000C7
:100BBC00A401060808B5034B1B68D3F89C300193BD
:100BCC0008BD0000A401060808B5024B1B68DB6BCE
:100BDC00019308BDCC01060808B5024B1B685B6885
:100BEC00019308BDC801060808B5024B1B689B6839
:100BFC00019308BDC801060808B5024B1B68DB68E9
:100C0C00019308BDC801060808B5024B1B681B6997
:100C1C00019308BDC801060808B5024B1B685B6947
:100C2C00019308BDC801060808B5024B1B689B69F7
:100C3C00019308BDC801060808B5024B1B68DB69A7
:100C4C00019308BDC801060808B5024B1B681B6A56
:100C5C00019308BDC801060808B5024B1B681B6B45
:100C6C00019308BDC801060808B5024B1B685B6BF5
:100C7C00019308BDC801060808B5024B1B681B6828
:100C8C00019308BDA001060808B5024B1B685B6800
:100C9C00019308BDA001060808B5024B1B689B68B0
:100CAC00019308BDA001060808B5024B1B685B6ADE
:100CBC00019308BDA00106080021FFF769BF10B51C
:100CCC008368044613B1032201469847204610BDA1
:100CDC007047F8B5064615460C468F18BC4206D030
:100CEC00336814F8011B9B6830469847F6E7284692
:100CFC00F8BD0022007CFFF729BE0021007CFFF725
:100D0C002DBE0021007CFFF731BE0021007CFFF7D7
:100D1C0035BE0021007CFFF739BE10B50446142106
:100D2C0001F005F9204610BD10B5044608464FF4F5
:100D3C007A73A360044B0021207461602360FFF779
:100D4C0035FE204610BD00BF10780A080021007C3B
:100D5C00FFF724BE704710B50446182101F0E7F8E0
:100D6C00204610BDF8B50F4600F10806051D0024FD
:100D7C0016F8011D0A22384600F037F9AE42044439
:100D8C0007D0002CF4D02E21384600F0EBF80444A8
:100D9C00EEE72046F8BD000010B50446044B1122C6
:100DAC0040F8043B002101F03AFA204610BD00BF88
:100DBC0038780A080346074A10B543F8042B01F1AA
:100DCC00100251F8044B914243F8044BF9D10A78C4
:100DDC001A7010BD38780A08024A41600260042279
:100DEC000275704738780A0810B59DF8084044EA37
:100DFC00032343EA024242EA016104234160037582
:100E0C0010BD000037B5044D05609DF818500095D5
:100E1C00FFF7EAFF03B030BD38780A08014A024BED
:100E2C001A607047BA780A08B001002000231A46ED
:100E3C004068FFF7D1BE002202214068FFF7DCBEFC
:100E4C00002211464068FFF7CFBE002211464068D1
:100E5C00FFF7DABE00231A4619464068FFF7DCBEDE
:100E6C0000231A4619464068FFF7DEBE002281F0C7
:100E7C0001014068FFF7E0BE00224068FFF7ECBEBE
:100E8C00002211464068FFF7EFBE00221146406871
:100E9C00FFF7DABE70B516468EB0044608A8FFF709
:100EAC007BFF1122002103A801F0B9F9304601F0B3
:100EBC00F9F900250A4B009581B25B6803AA30460C
:100ECC00FFF746FE20B129462046FFF785FF03E0D9
:100EDC0003A92046FFF76EFF20460EB070BD00BF81
:100EEC0034060020034B044A04280CBF1046184655
:100EFC00704700BFB401002034060020024B034AA7
:100F0C001A6000225A607047B401002028790A0840
:100F1C00F8B506460D468F180024BD420CD0336838
:100F2C0015F8011B9B6830469847002801DB0444E8
:100F3C00F3E7002C08BF04462046F8BD70B5054603
:100F4C000C46084649B101F0ADF92B680246214622
:100F5C002846BDE87040DB68184770BD08B5FFF740
:100F6C00EDFF08BD03689B68184738B50D21054691
:100F7C00FFF7F8FF0A2104462846FFF7F3FF204449
:100F8C0038BD38B50546FFF7D9FF04462846FFF7AC
:100F9C00ECFF204438BD012A98BF0A2230B50B461D
:100FAC008BB000218DF824100DF12304B3FBF2F566
:100FBC0005FB1233DBB2092B94BF30333733DBB272
:100FCC00214604F801392B46002DEFD1FFF7B6FF6F
:100FDC000BB030BD10B422B90368C9B29B6810BC09
:100FEC001847D2B210BCFFF7D6BFFFF7F3BF38B526
:100FFC000546FFF7EFFF04462846FFF7B6FF2044EF
:10100C0038BD2DE9F04107460E4615462AB9BDE814
:10101C00F0410368C9B29B6818470A2A02D100291B
:10102C0001DA04E0D2B2BDE8F041FFF7B4BF2D21E4
:10103C00FFF798FF2A46044671423846FFF7ABFF8C
:10104C002044BDE8F08138B50546FFF7DAFF0446C9
:10105C002846FFF78AFF204438BD0CB42DE9F04335
:10106C0087B000AF07F1380454F8049B05460E46D0
:10107C0023464A461421381D3C60FFF715FE132801
:10108C0005D8391D2846FFF759FF044613E000F137
:10109C00080323F00703E846ADEB030D411C234680
:1010AC004A4668463C60FFF7FFFD69462846FFF755
:1010BC0045FF0446C5461EB12846FFF756FF0444BB
:1010CC0020461C37BD46BDE8F04302B0704710B552
:1010DC000446FFF7F4FD204610BD00000348002332
:1010EC008360034A034900F01DBF00BFBC01002010
:1010FC0040010020DB100A08704710B5044610218F
:10110C0000F015FF204610BD70B504460E46074B87
:10111C000025036040F80C5FFFF7A0FB30462671FA
:10112C00FFF78EFCA560204670BD00BF5C790A08F5
:10113C000079FFF78DBC10B504460068FFF7A4FDDD
:10114C00204610BD10B50446006808B1FFF79CFDA1
:10115C0000232360A360636010BD38B504460D46C0
:10116C0000680131FFF798FD10B184E821000120DF
:10117C0038BD10B50368044613B143688B4207D2DF
:10118C002046FFF7EAFF20B1A3680BB92268137061
:10119C00012010BD70B50E46114604461546FFF7EA
:1011AC00E8FF18B92046FFF7CDFF09E02A46314683
:1011BC00A560206801F028F82268A3680021D154AA
:1011CC00204670BD38B5002304460360436083603D
:1011DC0003730D4639B1084601F064F829460246FE
:1011EC002046FFF7D7FF204638BD38B505460C46DC
:1011FC0041B1084601F056F8214602462846FFF751
:10120C00C9FF01E0FFF79EFF284638BD10B5044624
:10121C0000238AB023606360A3602373084601A98E
:10122C0000F0AFFC01A92046FFF7DFFF20460AB013
:10123C0010BD10B504468AB0002323606360A36020
:10124C0023730846012301A900F0D9FC01A920460B
:10125C00FFF7CBFF20460AB010BD70B504460E4612
:10126C0009B9002070BD6AB18368D5182946FFF70B
:10127C0080FF0028F5D02068A3683146184401F09F
:10128C0009F8A560012070BD8A680968FFF7E5BF01
:10129C0038B505460C46084641B101F003F8214625
:1012AC0002462846BDE83840FFF7D7BF38BD10B519
:1012BC008A6809680446FFF7D0FF10B92046FFF78B
:1012CC0041FF204610BD38B504460D4641B10846D5
:1012DC0000F0E8FF294602462046FFF7BEFF10B992
:1012EC002046FFF72FFF204638BD00004FF6FF7257
:1012FC00034B0020187058809A80FFF741BC00BF48
:10130C00CC01002037B502AC036804F8011DDD6B7D
:10131C00012247F230532146A84703B030BD10B428
:10132C000368DC6B47F23053A44610BC604737B5FA
:10133C0002AC036804F8011DDD6B21461346012243
:10134C00A84703B030BD704770470020704710B5F8
:10135C000446142100F0EBFD204610BDFEF799BEAB
:10136C0010B5044603689B689847A368013BA360CB
:10137C002BB923682046BDE81040DB68184710BD28
:10138C0070B5044606464D69044B8C3544F8043B55
:10139C000FCD0FC42B683046237070BD38780A0807
:1013AC0010B543690446B3F88620B3F884309A42EA
:1013BC0005D06269B2F884301344187910BD036803
:1013CC001B6998470028F4D14FF0FF3010BD10B5C1
:1013DC0043690446B3F88620B3F884309A4208D0A7
:1013EC006269B2F88430591CA2F88410134418793D
:1013FC0010BD03681B6998470028F1D14FF0FF30EE
:10140C0010BDF8B543691746B3F88620B3F884309D
:10141C0005469A420E4606D103681B69984710B9D7
:10142C004FF0FF3414E069693046B1F88430B1F8FC
:10143C0086401944E41ABC4228BF3C46043122467B
:10144C0000F0E2FE6A69B2F884302344A2F88430DA
:10145C002046F8BD42690023A2F884304269A2F804
:10146C008630704738B542690446B2F886301BB1F5
:10147C00B2F884209A420CD02069FFF733FD036840
:10148C00DB68984718B363691868FFF7A1FA18B9B5
:10149C001DE0FFF7DFFFEFE76069B0F886107F29EA
:1014AC0015D8051DC1F18002002329440068FFF7FF
:1014BC00A7FA00280BDD6369B3F886200AB9A3F8F4
:1014CC0084206269B2F886301844A2F886006269FA
:1014DC00B2F88630B2F88400181A38BD38B54369B2
:1014EC0004461868FFF774FA18B163691868FFF7B7
:1014FC008FFA6569FFF794FA286060691122002160
:10150C008C3000F08CFE2046BDE83840FFF7A2BFBF
:10151C002DE9F0411F4603688AB0DB6A06460C468B
:10152C00154698473846FFF7DDFC0368DB6898479B
:10153C00002856D000972B46062201210220D6F80F
:10154C001480FFF74DFA2023C8F8000000270293FF
:10155C00736903971B6801200193234B02AA009324
:10156C0022493B46FFF704FB73691868FFF730FA12
:10157C00002836D03046FFF76DFF0223ADF8083057
:10158C002B0A8DF80A30E3794FF4FA508DF80C30B1
:10159C00A3798DF80B508DF80D3063798DF80E30E2
:1015AC0014F8043F8DF80F30FFF7CAFA736905463B
:1015BC00102202A91868FFF71BFA80462846FFF78D
:1015CC00BFFA0FCC75698C350FC523682B70B8F139
:1015DC00000F05D033683046DB6A9847384600E088
:1015EC0001200AB0BDE8F081D3790A08CC790A0849
:1015FC0010B5436904461868FFF7EAF908B90020EA
:10160C0010BD2069FFF76EFC0368DB689847002863
:10161C00F5D063691868FFF7D3F9B0FA80F0400988
:10162C0010BD2DE9F3410025456004460E461746D2
:10163C009846FFF7DDFF60B160690195CDF8008039
:10164C002B463A4631460068FFF7F2F9002803DAD8
:10165C0001E04FF0FF30606002B0BDE8F08138B5BA
:10166C000446FFF7C5FF00BB6369B3F88610B3F8F7
:10167C008420914219D11868FFF7AAF928B163693F
:10168C001868FFF79DF9012801D000250EE02368AA
:10169C0020461B699847002814BF0125002505D159
:1016AC0023682046DB6A984700E00125284638BDB0
:1016BC0008B5FFF79DFF003018BF012008BD10B51D
:1016CC00044600230160A0F88430A0F886308830EE
:1016DC00FFF762FB204610BD4FF47A7270B5826042
:1016EC00144A002343600260436183610446A020D6
:1016FC000E46FEF7CCFC054610B13146FFF7DFFF76
:10170C001420FEF7C4FC034628B10122426082601B
:10171C00094A05610260A0696561A36128B143684B
:10172C00013B43600BB9FFF71BFE2046FFF792FE0F
:10173C00204670BD88790A086C790A0810B50446F1
:10174C00FFF76EF901462046FFF7C6FF204610BD95
:10175C0010B504460068FFF73BF910B12068FFF79D
:10176C0057F9204610BD10B504692046FFF7F0FF6D
:10177C0024B12046BDE81040FEF78BBC10BD000024
:10178C002DE9F0431F4603688FB0DB6A06460D4611
:10179C00904698471348FFF758FB00B302A8FFF791
:1017AC00FBFA284600F07EFD002481B200943B46F3
:1017BC0003AA2846FFF7CCF980B9336809ADD3F8F2
:1017CC002090094B03AC08930FCC0FC523684246FD
:1017DC002B7008A93B463046C84700E020460FB0A6
:1017EC00BDE8F083B401002038780A08024B1A686F
:1017FC00024B1A60704700BFD8000020D4010020B3
:10180C0070474174704708B5007CFFF761F920EA16
:10181C00E07008BD08B5007CFFF732F920EAE070F3
:10182C0008BD08B5007CFFF73BF930EA200028BF63
:10183C004FF0FF3008BD08B5007CFFF729F930EAFE
:10184C00200028BF4FF0FF3008BD007CFFF730B9F7
:10185C0010B50446142100F06AFB204610BD70B58B
:10186C00457C04460E4625B9007CFFF731F900286B
:10187C0005DD3146207CBDE87040FFF7F9B82846FD
:10188C0070BD000010B50446084611460022626087
:10189C004FF47A72A260054A2074226001226274AD
:1018AC001A46FFF7DDF8204610BD00BF187A0A086B
:1018BC00007CFFF705B9000038B50C4D296811F014
:1018CC00010411D12846FEF7E6FB68B1084A21460F
:1018DC00084B0948FFF7D6FF2846FEF7E1FB074AFD
:1018EC000749054800F01EFB034838BD7002002074
:1018FC0074020020EC010020D801002040010020DF
:10190C000D180A0841747047704708B50021007C17
:10191C00FFF7FEF830EA200028BF4FF0FF3008BD7B
:10192C0008B50121007CFFF7F3F830EA200028BF4E
:10193C004FF0FF3008BD08B5007CFFF7E1F820EA56
:10194C00E07008BD08B5007CFFF7D2F820EAE07023
:10195C0008BD007CFFF7ECB810B50446142100F06C
:10196C00E6FA204610BD38B50446007C0D46FFF75C
:10197C00C7F8002801DC607C28B12946207CFFF7E1
:10198C00CFF820EAE07038BD10B504460023636040
:10199C004FF47A73A360054B08462360012321742E
:1019AC0063741146FFF79CF8204610BD487A0A086C
:1019BC0010B504461422002100F031FC054B2046E2
:1019CC006360054BE36040F2011323818123238282
:1019DC0010BD00BF7D030020FC02002030B50E4D71
:1019EC0087B001A8FFF7E4FF296811F0010410D1BA
:1019FC002846FEF750FB60B101AA21460748FFF7C5
:101A0C00C3FF2846FEF74CFB054A0649034800F085
:101A1C0089FA024807B030BDF8020020800400208B
:101A2C004001002015190A0810B5044614220021A3
:101A3C0000F0F5FB054B20466360054BE36040F27C
:101A4C00011323818123238210BD00BF30050020A8
:101A5C009804002010B50E4C86B001A8FFF7E4FFE7
:101A6C002368DB0710D42046FEF715FB60B101AAF2
:101A7C0001210848FFF788FF2046FEF711FB064AB4
:101A8C000649044800F04EFA024806B010BD00BFEB
:101A9C00940400201C0500204001002015190A08A0
:101AAC00002211464068FFF7AFB8F0B5164689B072
:101ABC0011220F460446002103A800F0B0FB30466B
:101ACC0000F0F0FB0025009581B27B6803AA30463C
:101ADC00FFF73EF820B129462046FFF77DF903E0D9
:101AEC0003A92046FFF766F9204609B0F0BD002295
:101AFC0011464068FFF7A8B8002211464068FFF76E
:101B0C00B3B800224068FFF7A7B8002281F00101AA
:101B1C004068FFF791B800231A4619464068FFF752
:101B2C0083B800231A4619464068FFF775B800229F
:101B3C0011464068FFF758B8002202214068FFF7B1
:101B4C005BB800231A464068FFF746B8024B0422E4
:101B5C005A60024A1A60704734060020787A0A08E4
:101B6C0010B5044600F09EFB01382318204698421D
:101B7C0006D20278197800F8011B03F80129F6E760
:101B8C0010BD931E232B2DE9F041154634BF15468D
:101B9C000A258CB000230A2D0C468DF82C3007D169
:101BAC00984205DA2D2301F101080B70404201E047
:101BBC00A8B1A0460DF12B0601272A46014601A823
:101BCC0000F00EFB029A0198092ACCBF3723302370
:101BDC00134406F8013901370028EED106E0A0467F
:101BEC0030238DF82B300DF12A0602273A46711C52
:101BFC00404600F009FB20460CB0BDE8F08170B502
:101C0C000C46911E222920D82546294610B923447A
:101C1C0030220EE0B0FBF2F602FB1600C1B209282E
:101C2C0005F8011B94BF3031573105F8011C3046C3
:101C3C00EBE7994202D201F8012BFAE70023204688
:101C4C000B70FFF78DFF204670BD002070BD0000AB
:101C5C0008B5144B33B1FFF7C1FE03681B699847F5
:101C6C00002816DC104B33B1FFF726FE03681B6906
:101C7C009847002810DC0D4B0BB1AFF300800C4BD8
:101C8C007BB1FFF7E7FE03681B699847002806DC69
:101C9C0008BDAFF30080E5E7AFF30080EBE7AFF3EF
:101CAC00008008BD000000000000000000000000E3
:101CBC000000000008B5FFF7CBFFFEF7E7FD014B76
:101CCC00186008BD440600200248034A0349121A52
:101CDC0000F09ABA00400240B8440240507B0A0817
:101CEC0007B5002300931A466FF07701FEF762FFE9
:101CFC0003B05DF804FB000007B543880A2B08D03D
:101D0C00502B09D1094B1B683BB103B05DF804EBB8
:101D1C001847FFF7E5FF06E0002300931A466FF023
:101D2C007701FEF747FF03B05DF804FB3C0600208B
:101D3C0038B5104C104D2368AB42104B0CBF012230
:101D4C0000221A7002D0FFF7BFFF2560FEF796FD48
:101D5C00044600F06DFA0A4B13B12046AFF3008035
:101D6C0000210748FEF730FFBDE838400021054848
:101D7C00FEF716BFB44402401E1C279A40060020F2
:101D8C0000000000051D0A0810B504460F48FFF7B7
:101D9C00CFF928B1A4F10D03022B01D8002010BDFE
:101DAC0000F066F8FEF7D2FF08B1012CF6D9FFF768
:101DBC0083FDFFF77DFD18B1A4F11203012BEDD9C2
:101DCC00172C8CBF0020012010BD00BF8006002006
:101DDC00172838B504460D460AD8FF2908D0FFF756
:101DEC00D3FF28B129462046BDE83840FEF78EBD0A
:101DFC0038BD10B50446FEF791FD0438C0B2012879
:101E0C0008D92046FFF7C0FF20B12046BDE810409E
:101E1C00FEF78CBD002010BD10B5044609289CBFF0
:101E2C000A34A4B22046FFF7AFFF50B1032120467D
:101E3C00FEF764FD032804D12046BDE81040FEF7F0
:101E4C007DBD002010BD000010B5074C2368DB07DA
:101E5C0008D42046FEF71FF920B1FEF71FFD2046DF
:101E6C00FEF71EF9014810BD480600204C06002064
:101E7C0038B50B4D296811F001040FD12846FEF737
:101E8C000AF958B121460748FEF74EFF2846FEF7DF
:101E9C0007F9054A0549034800F044F8014838BDE4
:101EAC00500600205406002040010020DD0C0A08DA
:101EBC0013B5084C00231A46194600932046FEF72A
:101ECC00A1FF2046044A054902B0BDE8104000F0CD
:101EDC0029B800BF6806002040010020610D0A08E7
:101EEC0070B50C4C0C4E0D4D00212046FFF70CF933
:101EFC0020460B4C3246294600F014F801212046AE
:101F0C00FFF702F9324629462046BDE8704000F042
:101F1C0009B800BF800600204001002005110A0806
:101F2C00900600200B460146184600F04BB9FEF710
:101F3C00B0B80000244B1A68D0075CBF01221A60AD
:101F4C00224B1A68D1075CBF01221A60204B1A6819
:101F5C00D2075CBF01221A601E4B1A68D0075CBF07
:101F6C0001221A601C4B1A68D1075CBF01221A604F
:101F7C001A4B1A68D2075CBF01221A60184B1A68F8
:101F8C00D0075CBF01221A60164B1A68D1075CBFE0
:101F9C0001221A60144B1A68D2075CBF01221A6026
:101FAC00124B1A68D0075CBF01221A60104B1A68DA
:101FBC00D1075CBF01221A600E4B1A68D2075CBFB6
:101FCC0001221A60704700BFCC060020C806002012
:101FDC00C4060020C0060020BC060020B806002065
:101FEC00B4060020B0060020AC060020A806002095
:101FFC00A4060020A0060020184B1A68D1075CBF6D
:10200C0001221A60164B1A68D2075CBF01221A60B3
:10201C00144B1A68D0075CBF01221A60124B1A6865
:10202C00D1075CBF01221A60104B1A68D2075CBF43
:10203C0001221A600E4B1A68D0075CBF01221A608D
:10204C000C4B1A68D1075CBF01221A600A4B1A6844
:10205C00D2075CBF01221A60704700BFEC0600205B
:10206C00E8060020E4060020E0060020DC06002044
:10207C00D8060020D4060020D0060020184B1A6881
:10208C00D1075CBF01221A60164B1A68D2075CBFDD
:10209C0001221A60144B1A68D0075CBF01221A6027
:1020AC00124B1A68D1075CBF01221A60104B1A68D8
:1020BC00D2075CBF01221A600E4B1A68D0075CBFB6
:1020CC0001221A600C4B1A68D1075CBF01221A60FE
:1020DC000A4B1A68D2075CBF01221A60704700BF16
:1020EC000C07002008070020040700200007002030
:1020FC00FC060020F8060020F4060020F006002064
:10210C00244B1A68D0075CBF01221A60224B1A6854
:10211C00D1075CBF01221A60204B1A68D2075CBF42
:10212C0001221A601E4B1A68D0075CBF01221A608C
:10213C001C4B1A68D1075CBF01221A601A4B1A6833
:10214C00D2075CBF01221A60184B1A68D0075CBF1B
:10215C0001221A60164B1A68D1075CBF01221A6063
:10216C00144B1A68D2075CBF01221A60124B1A6812
:10217C00D0075CBF01221A60104B1A68D1075CBFF4
:10218C0001221A600E4B1A68D2075CBF01221A603A
:10219C00704700BF3C0700203807002034070020A0
:1021AC00300700202C0700202807002024070020DF
:1021BC00200700201C07002018070020140700200F
:1021CC001007002010B5054C13462CB10A460146E9
:1021DC000220AFF3008010BD204610BD00000000AF
:1021EC0010B591FBF2F4002902FB141304DB002B55
:1021FC0007DA01349B1A04E0002BC4BF04F1FF344E
:10220C009B180460436010BD10B5431E0A449142F4
:10221C0004D011F8014B03F8014FF8E710BD034649
:10222C000244934202D003F8011BFAE77047000006
:10223C0038B5124B05461C68A36BD3B91820FEF7B2
:10224C001BFD43F20E33A06303804AF6CD3343806B
:10225C0041F2342383804EF26D63C3804DF6EC6300
:10226C000381052343810B23838101220023C0E9D1
:10227C000423A36B00221D615A6138BD3C01002070
:10228C0010F8012B11F8013B012A28BF9A42F7D014
:10229C00D01A7047034611F8012B03F8012B002AC2
:1022AC00F9D17047034613F8012B002AFBD1181AF9
:1022BC00013870471D000A085D000A0889000A08E9
:1022CC008D000A080000000076617220626173655F
:1022DC005F75726C3D27687474703A2F2F313932E8
:1022EC002E3136382E302E312F273B766172206EF0
:1022FC006574776F726B5F6C6973743B7661722077
:10230C007075626C69635F6B65793B766172207284
:10231C0073613D6E6577205253414B657928293B9B
:10232C00766172207363616E427574746F6E3D6476
:10233C006F63756D656E742E676574456C656D6540
:10234C006E744279496428277363616E2D627574CB
:10235C00746F6E27293B76617220636F6E6E6563B6
:10236C0074427574746F6E3D646F63756D656E74D5
:10237C002E676574456C656D656E74427949642889
:10238C0027636F6E6E6563742D627574746F6E2740
:10239C00293B76617220636F7079427574746F6E2D
:1023AC003D646F63756D656E742E676574456C6501
:1023BC006D656E74427949642827636F70792D625C
:1023CC007574746F6E27293B7661722073686F7712
:1023DC00427574746F6E3D646F63756D656E742EAB
:1023EC00676574456C656D656E7442794964282720
:1023FC0073686F772D627574746F6E27293B7661E5
:10240C00722064657669636549443D646F63756DDC
:10241C00656E742E676574456C656D656E74427976
:10242C00496428276465766963652D696427293BAF
:10243C0076617220636F6E6E656374466F726D3D6C
:10244C00646F63756D656E742E676574456C656D30
:10245C00656E74427949642827636F6E6E65637488
:10246C002D666F726D27293B766172207075626CD8
:10247C0069635F6B65795F63616C6C6261636B3D13
:10248C007B737563636573733A66756E6374696F9A
:10249C006E2861297B636F6E736F6C652E6C6F6732
:1024AC0028275075626C6963206B65793A20272B5D
:1024BC00612E62293B7075626C69635F6B65793D57
:1024CC00612E623B7273612E7365745075626C6918
:1024DC0063287075626C69635F6B65792E737562C6
:1024EC00737472696E672835382C35382B32353653
:1024FC00292C7075626C69635F6B65792E737562DC
:10250C00737472696E67283331382C3331382B363B
:10251C0029293B7D2C6572726F723A66756E6374F5
:10252C00696F6E28612C62297B636F6E736F6C65AB
:10253C002E6C6F672861293B77696E646F772E610B
:10254C006C657274282754686572652077617320F6
:10255C00612070726F626C656D206665746368696A
:10256C006E6720696D706F7274616E7420696E662F
:10257C006F726D6174696F6E2066726F6D20796F0A
:10258C007572206465766963652E20506C65617385
:10259C00652076657269667920796F757220636F34
:1025AC006E6E656374696F6E2C207468656E207234
:1025BC00656C6F6164207468697320706167652E47
:1025CC0027293B7D7D3B7661722064657669636566
:1025DC005F69645F63616C6C6261636B3D7B737597
:1025EC0063636573733A66756E6374696F6E2861A5
:1025FC00297B76617220623D612E69643B6465764D
:10260C0069636549442E76616C75653D623B7D2C32
:10261C006572726F723A66756E6374696F6E28615B
:10262C002C62297B636F6E736F6C652E6C6F6728E1
:10263C0061293B76617220633D27434F4D4D554ECA
:10264C0049434154494F4E5F4552524F52273B64C8
:10265C00657669636549442E76616C75653D633BAF
:10266C007D7D3B766172207363616E3D66756E6332
:10267C0074696F6E28297B636F6E736F6C652E6C3B
:10268C006F6728275363616E6E696E672E2E2E213D
:10269C0027293B64697361626C65427574746F6E53
:1026AC007328293B7363616E427574746F6E2E6967
:1026BC006E6E657248544D4C3D275363616E6E6966
:1026CC006E672E2E2E273B636F6E6E65637442759C
:1026DC0074746F6E2E696E6E657248544D4C3D2746
:1026EC00436F6E6E656374273B646F63756D656EC7
:1026FC00742E676574456C656D656E7442794964BA
:10270C002827636F6E6E6563742D64697627292E96
:10271C007374796C652E646973706C61793D276E86
:10272C006F6E65273B646F63756D656E742E6765A0
:10273C0074456C656D656E744279496428276E65C5
:10274C0074776F726B732D64697627292E73747985
:10275C006C652E646973706C61793D276E6F6E6564
:10276C00273B676574526571756573742862617374
:10277C00655F75726C2B277363616E2D6170272CEE
:10278C007363616E5F63616C6C6261636B293B7D2B
:10279C003B766172207363616E5F63616C6C626126
:1027AC00636B3D7B737563636573733A66756E63B8
:1027BC0074696F6E2861297B6E6574776F726B5FBD
:1027CC006C6973743D612E7363616E733B636F6EE2
:1027DC00736F6C652E6C6F6728274920666F756E5A
:1027EC00643A27293B76617220623D646F63756D94
:1027FC00656E742E676574456C656D656E74427993
:10280C00496428276E6574776F726B732D646976D3
:10281C0027293B622E696E6E657248544D4C3D27DC
:10282C00273B6966286E6574776F726B5F6C697392
:10283C00742E6C656E6774683E3029666F722876EC
:10284C00617220633D303B633C6E6574776F726BD5
:10285C005F6C6973742E6C656E6774683B632B2BAD
:10286C00297B737369643D6E6574776F726B5F6CF3
:10287C006973745B635D2E737369643B636F6E7312
:10288C006F6C652E6C6F67286E6574776F726B5FFB
:10289C006C6973745B635D293B6164645F77696623
:1028AC00695F6F7074696F6E28622C737369642929
:1028BC003B646F63756D656E742E676574456C65EE
:1028CC006D656E74427949642827636F6E6E65631B
:1028DC00742D64697627292E7374796C652E64695E
:1028EC0073706C61793D27626C6F636B273B7D6500
:1028FC006C736520622E696E6E657248544D4C3D4A
:10290C00273C7020636C6173733D5C277363616E4D
:10291C006E696E672D6572726F725C273E4E6F200A
:10292C006E6574776F726B7320666F756E642E3C78
:10293C002F703E273B7D2C6572726F723A66756EF6
:10294C006374696F6E2861297B636F6E736F6C653E
:10295C002E6C6F6728275363616E6E696E672065F6
:10296C0072726F723A272B61293B646F63756D65C8
:10297C006E742E676574456C656D656E744279492D
:10298C006428276E6574776F726B732D6469762774
:10299C00292E696E6E657248544D4C3D273C702053
:1029AC00636C6173733D5C277363616E6E696E67F4
:1029BC002D6572726F725C273E5363616E6E696E29
:1029CC0067206572726F722E3C2F703E273B7D2CF8
:1029DC007265676172646C6573733A66756E637465
:1029EC00696F6E28297B7363616E427574746F6EA8
:1029FC002E696E6E657248544D4C3D2752652D53B1
:102A0C0063616E273B656E61626C65427574746FB1
:102A1C006E7328293B646F63756D656E742E6765E4
:102A2C0074456C656D656E744279496428276E65D2
:102A3C0074776F726B732D64697627292E73747992
:102A4C006C652E646973706C61793D27626C6F6381
:102A5C006B273B7D7D3B76617220636F6E66696789
:102A6C007572653D66756E6374696F6E2861297B3E
:102A7C00612E70726576656E7444656661756C74F2
:102A8C0028293B76617220623D6765745F73656CC3
:102A9C0065637465645F6E6574776F726B28293B30
:102AAC0076617220633D646F63756D656E742E671D
:102ABC006574456C656D656E744279496428277040
:102ACC00617373776F726427292E76616C75653B21
:102ADC006966282162297B77696E646F772E616C39
:102AEC006572742827506C656173652073656C651D
:102AFC0063742061206E6574776F726B2127293B9C
:102B0C0072657475726E2066616C73653B7D76615F
:102B1C007220643D7B6964783A302C737369643A33
:102B2C00622E737369642C7077643A7273612E65CC
:102B3C006E63727970742863292C7365633A622E04
:102B4C007365632C63683A622E63687D3B636F6EBA
:102B5C006E656374427574746F6E2E696E6E6572F9
:102B6C0048544D4C3D2753656E64696E6720637203
:102B7C006564656E7469616C732E2E2E273B6469D7
:102B8C007361626C65427574746F6E7328293B6354
:102B9C006F6E736F6C652E6C6F67282753656E6450
:102BAC00696E672063726564656E7469616C733AF3
:102BBC0020272B4A534F4E2E737472696E676966C9
:102BCC0079286429293B706F73745265717565732C
:102BDC007428626173655F75726C2B27636F6E6608
:102BEC0069677572652D6170272C642C636F6E6636
:102BFC0069677572655F63616C6C6261636B293BBD
:102C0C007D3B76617220636F6E6669677572655F76
:102C1C0063616C6C6261636B3D7B7375636365733D
:102C2C00733A66756E6374696F6E2861297B636F86
:102C3C006E736F6C652E6C6F6728274372656465C5
:102C4C006E7469616C732072656365697665642E58
:102C5C0027293B636F6E6E656374427574746F6E77
:102C6C002E696E6E657248544D4C3D2743726564F7
:102C7C00656E7469616C73207265636569766564F1
:102C8C002E2E2E273B706F7374526571756573749D
:102C9C0028626173655F75726C2B27636F6E6E654E
:102CAC0063742D6170272C7B6964783A307D2C63BA
:102CBC006F6E6E6563745F63616C6C6261636B29CC
:102CCC003B7D2C6572726F723A66756E6374696FB8
:102CDC006E28612C62297B636F6E736F6C652E6C32
:102CEC006F672827436F6E6669677572652065721A
:102CFC00726F723A20272B61293B77696E646F776C
:102D0C002E616C657274282754686520636F6E663B
:102D1C00696775726174696F6E20636F6D6D616E3A
:102D2C0064206661696C65642C20636865636B2044
:102D3C007468617420796F75206172652073746991
:102D4C006C6C2077656C6C20636F6E6E656374655C
:102D5C006420746F20746865206465766963655CB3
:102D6C002773205769466920686F7473706F7420DD
:102D7C00616E642072657472792E27293B636F6EC5
:102D8C006E656374427574746F6E2E696E6E6572C7
:102D9C0048544D4C3D275265747279273B656E61E2
:102DAC00626C65427574746F6E7328293B7D7D3B34
:102DBC0076617220636F6E6E6563745F63616C6CB9
:102DCC006261636B3D7B737563636573733A6675A0
:102DDC006E6374696F6E2861297B636F6E736F6CA1
:102DEC00652E6C6F672827417474656D7074696EFD
:102DFC006720746F20636F6E6E65637420746F2030
:102E0C0074686520636C6F75642E27293B636F6E45
:102E1C006E656374427574746F6E2E696E6E657236
:102E2C0048544D4C3D27417474656D7074696E67E0
:102E3C0020746F20636F6E6E6563742E2E2E273B8D
:102E4C0077696E646F772E616C6572742827596F81
:102E5C007572206465766963652073686F756C6440
:102E6C00206E6F7720737461727420666C61736866
:102E7C00696E6720677265656E20616E642061748F
:102E8C0074656D707420746F20636F6E6E656374FF
:102E9C0020746F2074686520636C6F75642E2054E9
:102EAC0068697320757375616C6C792074616B65DE
:102EBC00732061626F7574203230207365636F6E9E
:102ECC0064732C206166746572207768696368206E
:102EDC0069742077696C6C20626567696E20736C0D
:102EEC006F776C7920626C696E6B696E67206379A1
:102EFC00616E2E205C6E5C6E5C6E49662074686937
:102F0C00732070726F63657373206661696C7320D4
:102F1C006265636175736520796F7520656E746584
:102F2C00726564207468652077726F6E67207061BB
:102F3C007373776F72642C2074686520646576698E
:102F4C0063652077696C6C20666C617368206772AE
:102F5C0065656E20696E646566696E6974656C7909
:102F6C002E20496E207468697320636173652C2070
:102F7C00686F6C642074686520736574757020626A
:102F8C007574746F6E20666F722036207365636F74
:102F9C006E647320756E74696C207468652064654A
:102FAC00766963652073746172747320626C696EE8
:102FBC006B696E6720626C756520616761696E2E46
:102FCC00205468656E207265636F6E6E6563742045
:102FDC00746F20746865205769466920686F747334
:102FEC00706F742069742067656E657261746573A7
:102FFC0020616E642072656C6F6164207468697303
:10300C00207061676520746F20747279206167612C
:10301C00696E2E27293B7D2C6572726F723A66752C
:10302C006E6374696F6E28612C62297B636F6E739B
:10303C006F6C652E6C6F672827436F6E6E656374BB
:10304C00206572726F723A20272B61293B77696E6B
:10305C00646F772E616C65727428275468652063E1
:10306C006F6E6E65637420636F6D6D616E64206648
:10307C0061696C65642C20636865636B207468619E
:10308C007420796F7520617265207374696C6C2083
:10309C0077656C6C20636F6E6E6563746564207409
:1030AC006F20746865206465766963655C2773209E
:1030BC005769466920686F7473706F7420616E6411
:1030CC002072657472792E27293B636F6E6E65636F
:1030DC0074427574746F6E2E696E6E657248544DC1
:1030EC004C3D275265747279273B656E61626C6545
:1030FC00427574746F6E7328293B7D7D3B766172CB
:10310C002064697361626C65427574746F6E733D93
:10311C0066756E6374696F6E28297B636F6E6E655E
:10312C006374427574746F6E2E64697361626C653E
:10313C00643D747275653B7363616E427574746F34
:10314C006E2E64697361626C65643D747275653B67
:10315C007D3B76617220656E61626C65427574743C
:10316C006F6E733D66756E6374696F6E28297B6331
:10317C006F6E6E656374427574746F6E2E646973D2
:10318C0061626C65643D66616C73653B7363616E13
:10319C00427574746F6E2E64697361626C65643D04
:1031AC0066616C73653B7D3B766172206164645F24
:1031BC00776966695F6F7074696F6E3D66756E6373
:1031CC0074696F6E28612C62297B76617220633D75
:1031DC00646F63756D656E742E637265617465459D
:1031EC006C656D656E742827494E50555427293BE4
:1031FC00632E747970653D27726164696F273B6338
:10320C002E76616C75653D623B632E69643D623B55
:10321C00632E6E616D653D2773736964273B632E66
:10322C00636C6173734E616D653D27726164696F88
:10323C00273B76617220643D646F63756D656E74B7
:10324C002E637265617465456C656D656E742827B7
:10325C0044495627293B642E636C6173734E616D30
:10326C00653D27726164696F2D646976273B642E16
:10327C00617070656E644368696C642863293B7681
:10328C00617220653D646F63756D656E742E63723B
:10329C0065617465456C656D656E7428276C61623B
:1032AC00656C27293B652E68746D6C466F723D62A8
:1032BC003B652E696E6E657248544D4C3D623B64A5
:1032CC002E617070656E644368696C642865293B77
:1032DC00612E617070656E644368696C6428642942
:1032EC003B7D3B766172206765745F73656C6563CB
:1032FC007465645F6E6574776F726B3D66756E6333
:10330C0074696F6E28297B666F72287661722061F2
:10331C003D303B613C6E6574776F726B5F6C6973AB
:10332C00742E6C656E6774683B612B2B297B7373F1
:10333C0069643D6E6574776F726B5F6C6973745BF7
:10334C00615D2E737369643B696628646F63756D88
:10335C00656E742E676574456C656D656E74427927
:10336C0049642873736964292E636865636B6564AB
:10337C002972657475726E206E6574776F726B5FEF
:10338C006C6973745B615D3B7D7D3B766172206320
:10339C006F70793D66756E6374696F6E28297B77E3
:1033AC00696E646F772E70726F6D70742827436F1F
:1033BC00707920746F20636C6970626F6172643A0B
:1033CC00204374726C202B20432C20456E74657244
:1033DC00272C64657669636549442E76616C756546
:1033EC00293B7D3B76617220746F67676C6553680F
:1033FC006F773D66756E6374696F6E28297B766195
:10340C007220613D646F63756D656E742E676574B3
:10341C00456C656D656E74427949642827706173DB
:10342C0073776F726427293B696E70757454797069
:10343C00653D612E747970653B696628696E70759F
:10344C0074547970653D3D3D2770617373776F726D
:10345C006427297B73686F77427574746F6E2E695D
:10346C006E6E657248544D4C3D2748696465273B28
:10347C00612E747970653D2774657874273B7D6582
:10348C006C73657B73686F77427574746F6E2E699D
:10349C006E6E657248544D4C3D2753686F77273BD1
:1034AC00612E747970653D2770617373776F7264E8
:1034BC00273B7D7D3B766172206765745265717523
:1034CC006573743D66756E6374696F6E28612C62EA
:1034DC00297B76617220633D6E657720584D4C4890
:1034EC007474705265717565737428293B632E6F03
:1034FC0070656E2827474554272C612C74727565AE
:10350C00293B632E74696D656F75743D38303030AE
:10351C003B632E73656E6428293B632E6F6E726558
:10352C0061647973746174656368616E67653D6627
:10353C00756E6374696F6E28297B696628632E72B9
:10354C006561647953746174653D3D3429696628FD
:10355C0062297B696628632E7374617475733D3DB3
:10356C00323030297B696628622E7375636365730C
:10357C007329622E73756363657373284A534F4EB8
:10358C002E706172736528632E726573706F6E7323
:10359C00655465787429293B7D656C736520696673
:1035AC0028622E6572726F7229622E6572726F724A
:1035BC0028632E7374617475732C632E726573702B
:1035CC006F6E736554657874293B696628622E7238
:1035DC0065676172646C65737329622E72656761CD
:1035EC0072646C65737328293B7D7D3B7D3B7661F2
:1035FC007220706F7374526571756573743D667566
:10360C006E6374696F6E28612C622C63297B766102
:10361C007220643D4A534F4E2E737472696E676903
:10362C0066792862293B76617220653D6E6577204C
:10363C00584D4C48747470526571756573742829B3
:10364C003B652E6F70656E2827504F5354272C61A5
:10365C002C74727565293B652E74696D656F757474
:10366C003D343030303B652E736574526571756531
:10367C0073744865616465722827436F6E74656E58
:10368C00742D54797065272C276D756C7469706175
:10369C0072742F666F726D2D6461746127293B659E
:1036AC002E73656E642864293B652E6F6E7265619E
:1036BC00647973746174656368616E67653D667582
:1036CC006E6374696F6E28297B696628652E726536
:1036DC0061647953746174653D3D3429696628636E
:1036EC00297B696628652E7374617475733D3D3250
:1036FC003030297B696628632E7375636365737339
:10370C0029632E73756363657373284A534F4E2E6A
:10371C00706172736528652E726573706F6E736558
:10372C005465787429293B7D656C7365206966281E
:10373C00632E6572726F7229632E6572726F7228B6
:10374C00652E7374617475732C652E726573706F4E
:10375C006E736554657874293B696628632E7265AF
:10376C00676172646C65737329632E72656761722D
:10377C00646C65737328293B7D7D3B7D3B696628B2
:10378C007363616E427574746F6E2E6164644576FA
:10379C00656E744C697374656E6572297B636F70AA
:1037AC0079427574746F6E2E6164644576656E74BF
:1037BC004C697374656E65722827636C69636B273B
:1037CC002C636F7079293B73686F77427574746FD3
:1037DC006E2E6164644576656E744C697374656EA7
:1037EC0065722827636C69636B272C746F67676C31
:1037FC006553686F77293B7363616E427574746FA0
:10380C006E2E6164644576656E744C697374656E76
:10381C0065722827636C69636B272C7363616E294F
:10382C003B636F6E6E656374466F726D2E6164647C
:10383C004576656E744C697374656E657228277372
:10384C0075626D6974272C636F6E66696775726536
:10385C00293B7D656C7365206966287363616E42D4
:10386C007574746F6E2E6174746163684576656EE1
:10387C0074297B636F7079427574746F6E2E6174EA
:10388C00746163684576656E7428276F6E636C6926
:10389C00636B272C636F7079293B73686F77427564
:1038AC0074746F6E2E6174746163684576656E74A2
:1038BC0028276F6E636C69636B272C746F67676C5A
:1038CC006553686F77293B7363616E427574746FCF
:1038DC006E2E6174746163684576656E7428276F0B
:1038EC006E636C69636B272C7363616E293B636F2A
:1038FC006E6E656374466F726D2E6174746163686D
:10390C004576656E7428276F6E7375626D697427C2
:10391C002C636F6E666967757265293B7D6765748C
:10392C005265717565737428626173655F75726C2D
:10393C002B276465766963652D6964272C6465762D
:10394C006963655F69645F63616C6C6261636B2959
:10395C003B67657452657175657374286261736534
:10396C005F75726C2B277075626C69632D6B657952
:10397C00272C7075626C69635F6B65795F63616C32
:10398C006C6261636B293B0068746D6C7B68656964
:10399C006768743A313030253B6D617267696E3AF5
:1039AC006175746F3B6261636B67726F756E642DCA
:1039BC00636F6C6F723A77686974657D626F647956
:1039CC007B626F782D73697A696E673A626F726485
:1039DC0065722D626F783B6D696E2D6865696768DD
:1039EC00743A313030253B70616464696E673A32E9
:1039FC003070783B6261636B67726F756E642D63B8
:103A0C006F6C6F723A233161616265303B666F6E29
:103A1C00742D66616D696C793A274C7563696461C4
:103A2C002053616E7320556E69636F6465272C2774
:103A3C004C7563696461204772616E6465272C73F1
:103A4C00616E732D73657269663B666F6E742D774C
:103A5C0065696768743A6E6F726D616C3B636F6C0D
:103A6C006F723A77686974653B6D617267696E2D28
:103A7C00746F703A303B6D617267696E2D6C656660
:103A8C00743A6175746F3B6D617267696E2D726902
:103A9C006768743A6175746F3B6D617267696E2DFE
:103AAC00626F74746F6D3A303B6D61782D77696419
:103ABC0074683A34303070783B746578742D616C6E
:103ACC0069676E3A63656E7465723B626F726465AA
:103ADC00723A31707820736F6C69642023366536C6
:103AEC006537303B626F726465722D726164697503
:103AFC00733A3470787D6469767B6D617267696E38
:103B0C002D746F703A323570783B6D617267696EE7
:103B1C002D626F74746F6D3A323570787D68317BBD
:103B2C006D617267696E2D746F703A323570783BC7
:103B3C006D617267696E2D626F74746F6D3A323598
:103B4C0070787D627574746F6E7B626F726465726F
:103B5C002D636F6C6F723A233163373562653B624C
:103B6C0061636B67726F756E642D636F6C6F723A05
:103B7C00233163373562653B636F6C6F723A7768DC
:103B8C006974653B626F726465722D7261646975EC
:103B9C00733A3570783B6865696768743A3330708E
:103BAC00783B666F6E742D73697A653A313570782F
:103BBC003B666F6E742D7765696768743A626F6CDB
:103BCC00647D627574746F6E2E696E7075742D6879
:103BDC00656C7065727B6261636B67726F756E6426
:103BEC002D636F6C6F723A236265626562653B622E
:103BFC006F726465722D636F6C6F723A23626562CB
:103C0C006562653B636F6C6F723A23366536653758
:103C1C00303B6D617267696E2D6C6566743A3370FA
:103C2C00787D627574746F6E3A64697361626C65E9
:103C3C00647B6261636B67726F756E642D636F6C0E
:103C4C006F723A236265626562653B626F7264658E
:103C5C00722D636F6C6F723A236265626562653BAD
:103C6C00636F6C6F723A77686974657D696E707595
:103C7C00745B747970653D2774657874275D2C6965
:103C8C006E7075745B747970653D277061737377B2
:103C9C006F7264275D7B6261636B67726F756E64B4
:103CAC002D636F6C6F723A77686974653B636F6CE8
:103CBC006F723A233665366537303B626F726465D6
:103CCC00722D636F6C6F723A77686974653B626FC3
:103CDC00726465722D7261646975733A3570783BE4
:103CEC006865696768743A323570783B74657874C6
:103CFC002D616C69676E3A63656E7465723B666FB5
:103D0C006E742D73697A653A313570787D696E7091
:103D1C0075743A64697361626C65647B6261636B30
:103D2C0067726F756E642D636F6C6F723A23626588
:103D3C00626562653B626F726465722D636F6C6F56
:103D4C00723A236265626562657D696E7075745B3B
:103D5C00747970653D27726164696F275D7B706F44
:103D6C00736974696F6E3A72656C61746976653BE0
:103D7C00626F74746F6D3A2D302E3333656D3B6DFD
:103D8C00617267696E3A303B626F726465723A3089
:103D9C003B6865696768743A312E35656D3B7769A8
:103DAC006474683A3135257D6C6162656C7B706139
:103DBC006464696E672D746F703A3770783B70610C
:103DCC006464696E672D626F74746F6D3A377078C6
:103DDC003B70616464696E672D6C6566743A352559
:103DEC003B646973706C61793A696E6C696E652DB0
:103DFC00626C6F636B3B77696474683A3830253B4F
:103E0C00746578742D616C69676E3A6C6566747D47
:103E1C00696E7075745B747970653D277261646945
:103E2C006F275D3A636865636B65642B6C616265D3
:103E3C006C7B666F6E742D7765696768743A626F18
:103E4C006C643B636F6C6F723A2331633735626518
:103E5C007D2E7363616E6E696E672D6572726F7203
:103E6C007B666F6E742D7765696768743A626F6CE8
:103E7C00643B746578742D616C69676E3A63656E2A
:103E8C007465727D2E726164696F2D6469767B62D4
:103E9C006F782D73697A696E673A626F72646572B6
:103EAC002D626F783B6D617267696E3A3270783B48
:103EBC006D617267696E2D6C6566743A6175746FAD
:103ECC003B6D617267696E2D72696768743A6175D2
:103EDC00746F3B6261636B67726F756E642D636F99
:103EEC006C6F723A77686974653B636F6C6F723A8A
:103EFC00233665366537303B626F726465723A31D2
:103F0C00707820736F6C69642023366536653730A2
:103F1C003B626F726465722D7261646975733A33BA
:103F2C0070783B77696474683A313030253B706146
:103F3C006464696E673A3570787D236E6574776F4B
:103F4C00726B732D6469767B6D617267696E2D6C13
:103F5C006566743A6175746F3B6D617267696E2D3D
:103F6C0072696768743A6175746F3B746578742D07
:103F7C00616C69676E3A6C6566747D2364657669FD
:103F8C0063652D69647B746578742D616C69676EEB
:103F9C003A63656E7465727D237363616E2D627511
:103FAC0074746F6E7B6D696E2D77696474683A31C9
:103FBC00303070787D23636F6E6E6563742D62751F
:103FCC0074746F6E7B646973706C61793A626C6F38
:103FDC00636B3B6D696E2D77696474683A31303070
:103FEC0070783B6D617267696E2D746F703A313009
:103FFC0070783B6D617267696E2D6C6566743A61A1
:10400C0075746F3B6D617267696E2D726967687448
:10401C003A6175746F3B6D617267696E2D626F7476
:10402C00746F6D3A323070787D2370617373776F73
:10403C0072647B6D617267696E2D746F703A323089
:10404C0070783B6D617267696E2D626F74746F6D01
:10405C003A313070787D0068616E646C696E6720EF
:10406C0070616765202573002F696E646578007335
:10407C00656E64696E67207265646972656374004D
:10408C004C6F636174696F6E3A202F696E6465784A
:10409C002E68746D6C0D0A00746578742F706C61E9
:1040AC00696E002F696E6465782E68746D6C00748F
:1040BC006578742F68746D6C002F7273612D757434
:1040CC00696C732F7273612E6A73006170706C6906
:1040DC00636174696F6E2F6A617661736372697064
:1040EC0074002F7374796C652E6373730074657828
:1040FC00742F637373002F7273612D7574696C73F5
:10410C002F726E672E6A73002F7273612D7574692E
:10411C006C732F6A73626E5F322E6A73002F727328
:10412C00612D7574696C732F6A73626E5F312E6AC0
:10413C0073002F7363726970742E6A73002F72731D
:10414C00612D7574696C732F70726E67342E6A737F
:10415C000066756E6374696F6E20417263666F756D
:10416C007228297B746869732E693D303B746869C9
:10417C00732E6A3D303B746869732E533D6E6577C0
:10418C0020417272617928293B7D66756E63746972
:10419C006F6E2041524334696E69742861297B76B5
:1041AC00617220622C632C643B666F7228623D3016
:1041BC003B623C3235363B2B2B6229746869732E7B
:1041CC00535B625D3D623B633D303B666F722862C0
:1041DC003D303B623C3235363B2B2B62297B633DB9
:1041EC0028632B746869732E535B625D2B615B6271
:1041FC0025612E6C656E6774685D29263235353BFA
:10420C00643D746869732E535B625D3B74686973BB
:10421C002E535B625D3D746869732E535B635D3B2B
:10422C00746869732E535B635D3D643B7D74686990
:10423C00732E693D303B746869732E6A3D303B7D4B
:10424C0066756E6374696F6E20415243346E657887
:10425C007428297B76617220613B746869732E69BE
:10426C003D28746869732E692B3129263235353B0C
:10427C00746869732E6A3D28746869732E6A2B748E
:10428C006869732E535B746869732E695D292632D5
:10429C0035353B613D746869732E535B7468697383
:1042AC002E695D3B746869732E535B746869732E59
:1042BC00695D3D746869732E535B746869732E6A0B
:1042CC005D3B746869732E535B746869732E6A5D09
:1042DC003D613B72657475726E20746869732E5300
:1042EC005B28612B746869732E535B746869732E39
:1042FC00695D29263235355D3B7D417263666F758C
:10430C00722E70726F746F747970652E696E697429
:10431C003D41524334696E69743B417263666F75FB
:10432C00722E70726F746F747970652E6E657874FE
:10433C003D415243346E6578743B66756E637469A7
:10434C006F6E2070726E675F6E65777374617465E3
:10435C0028297B72657475726E206E6577204172A8
:10436C0063666F757228293B7D76617220726E6769
:10437C005F7073697A653D3235363B0066756E63E6
:10438C0074696F6E207061727365426967496E74EF
:10439C0028612C62297B72657475726E206E65774C
:1043AC0020426967496E746567657228612C6229C1
:1043BC003B7D66756E6374696F6E206C696E6562A9
:1043CC00726B28612C62297B76617220633D2727F2
:1043DC003B76617220643D303B7768696C6528647C
:1043EC002B623C612E6C656E677468297B632B3D78
:1043FC00612E737562737472696E6728642C642BFA
:10440C0062292B275C6E273B642B3D623B7D7265DA
:10441C007475726E20632B612E737562737472697E
:10442C006E6728642C612E6C656E677468293B7D01
:10443C0066756E6374696F6E206279746532486557
:10444C00782861297B696628613C30783130297283
:10445C00657475726E202730272B612E746F537420
:10446C0072696E67283136293B656C7365207265FD
:10447C007475726E20612E746F537472696E672836
:10448C003136293B7D66756E6374696F6E20706B77
:10449C006373317061643228612C62297B696628F0
:1044AC00623C612E6C656E6774682B3131297B61BF
:1044BC006C65727428274D65737361676520746F22
:1044CC006F206C6F6E6720666F72205253412729E4
:1044DC003B72657475726E206E756C6C3B7D76618B
:1044EC007220633D6E657720417272617928293B99
:1044FC0076617220643D612E6C656E6774682D3137
:10450C003B7768696C6528643E3D302626623E30F8
:10451C00297B76617220653D612E63686172436F01
:10452C006465417428642D2D293B696628653C31EE
:10453C00323829635B2D2D625D3D653B656C73657F
:10454C002069662828653E31323729262628653CA5
:10455C003230343829297B635B2D2D625D3D286513
:10456C00263633297C3132383B635B2D2D625D3D21
:10457C0028653E3E36297C3139323B7D656C73654E
:10458C007B635B2D2D625D3D2865263633297C319E
:10459C0032383B635B2D2D625D3D2828653E3E36EF
:1045AC0029263633297C3132383B635B2D2D625DF5
:1045BC003D28653E3E3132297C3232343B7D7D6371
:1045CC005B2D2D625D3D303B76617220663D6E65E4
:1045DC00772053656375726552616E646F6D28291F
:1045EC003B76617220673D6E65772041727261790E
:1045FC0028293B7768696C6528623E32297B675BAA
:10460C00305D3D303B7768696C6528675B305D3D9C
:10461C003D3029662E6E657874427974657328670F
:10462C00293B635B2D2D625D3D675B305D3B7D639C
:10463C005B2D2D625D3D323B635B2D2D625D3D300C
:10464C003B72657475726E206E657720426967499E
:10465C006E74656765722863293B7D66756E63743D
:10466C00696F6E205253414B657928297B746869B8
:10467C00732E6E3D6E756C6C3B746869732E653D64
:10468C00303B746869732E643D6E756C6C3B74685A
:10469C0069732E703D6E756C6C3B746869732E710A
:1046AC003D6E756C6C3B746869732E646D70313D36
:1046BC006E756C6C3B746869732E646D71313D6EF4
:1046CC00756C6C3B746869732E636F6566663D6EC2
:1046DC00756C6C3B7D66756E6374696F6E2052539E
:1046EC00415365745075626C696328612C62297B37
:1046FC0069662861213D6E756C6C262662213D6EC3
:10470C00756C6C2626612E6C656E6774683E30265F
:10471C0026622E6C656E6774683E30297B746869FE
:10472C00732E6E3D7061727365426967496E7428B1
:10473C00612C3136293B746869732E653D7061724A
:10474C007365496E7428622C3136293B7D656C7318
:10475C006520616C6572742827496E76616C69649A
:10476C0020525341207075626C6963206B65792708
:10477C00293B7D66756E6374696F6E20525341449C
:10478C006F5075626C69632861297B7265747572F0
:10479C006E20612E6D6F64506F77496E742874684B
:1047AC0069732E652C746869732E6E293B7D667552
:1047BC006E6374696F6E20525341456E63727970EB
:1047CC00742861297B76617220623D706B63733152
:1047DC007061643228612C28746869732E6E2E62A5
:1047EC0069744C656E67746828292B37293E3E33F3
:1047FC00293B696628623D3D6E756C6C2972657447
:10480C0075726E206E756C6C3B76617220633D74B4
:10481C006869732E646F5075626C69632862293BFA
:10482C00696628633D3D6E756C6C29726574757292
:10483C006E206E756C6C3B76617220643D632E74D9
:10484C006F537472696E67283136293B6966282864
:10485C00642E6C656E6774682631293D3D30297273
:10486C00657475726E20643B656C7365207265743B
:10487C0075726E202730272B643B7D5253414B655C
:10488C00792E70726F746F747970652E646F5075B9
:10489C00626C69633D525341446F5075626C69633D
:1048AC003B5253414B65792E70726F746F747970F3
:1048BC00652E7365745075626C69633D5253415338
:1048CC0065745075626C69633B5253414B65792E2C
:1048DC0070726F746F747970652E656E6372797017
:1048EC00743D525341456E63727970743B0066752A
:1048FC006E6374696F6E20626E7052536869667471
:10490C00546F28612C62297B622E733D7468697325
:10491C002E733B76617220633D4D6174682E666C1C
:10492C006F6F7228612F746869732E4442293B693A
:10493C006628633E3D746869732E74297B622E74FD
:10494C003D303B72657475726E3B7D76617220648E
:10495C003D6125746869732E44423B766172206513
:10496C003D746869732E44422D643B7661722066F7
:10497C003D28313C3C64292D313B625B305D3D74FC
:10498C006869735B635D3E3E643B666F722876615B
:10499C007220673D632B313B673C746869732E74DE
:1049AC003B2B2B67297B625B672D632D315D7C3D37
:1049BC0028746869735B675D2666293C3C653B62BD
:1049CC005B672D635D3D746869735B675D3E3E6438
:1049DC003B7D696628643E3029625B746869732E7E
:1049EC00742D632D315D7C3D28746869732E73269C
:1049FC0066293C3C653B622E743D746869732E7469
:104A0C002D633B622E636C616D7028293B7D66754E
:104A1C006E6374696F6E20626E70537562546F288A
:104A2C00612C62297B76617220633D302C643D30B1
:104A3C002C653D4D6174682E6D696E28612E742C49
:104A4C00746869732E74293B7768696C6528633CBC
:104A5C0065297B642B3D746869735B635D2D615BB9
:104A6C00635D3B625B632B2B5D3D642674686973ED
:104A7C002E444D3B643E3E3D746869732E44423B6C
:104A8C007D696628612E743C746869732E74297B69
:104A9C00642D3D612E733B7768696C6528633C74AB
:104AAC006869732E74297B642B3D746869735B632E
:104ABC005D3B625B632B2B5D3D6426746869732ED2
:104ACC00444D3B643E3E3D746869732E44423B7DCD
:104ADC00642B3D746869732E733B7D656C73657BC9
:104AEC00642B3D746869732E733B7768696C652819
:104AFC00633C612E74297B642D3D615B635D3B627D
:104B0C005B632B2B5D3D6426746869732E444D3BAF
:104B1C00643E3E3D746869732E44423B7D642D3D7A
:104B2C00612E733B7D622E733D28643C30293F2DF2
:104B3C00313A303B696628643C2D3129625B632B2A
:104B4C002B5D3D746869732E44562B643B656C7306
:104B5C006520696628643E3029625B632B2B5D3DC2
:104B6C00643B622E743D633B622E636C616D7028F6
:104B7C00293B7D66756E6374696F6E20626E704D35
:104B8C00756C7469706C79546F28612C62297B7612
:104B9C00617220633D746869732E61627328292CDD
:104BAC00643D612E61627328293B76617220653DFC
:104BBC00632E743B622E743D652B642E743B7768B8
:104BCC00696C65282D2D653E3D3029625B655D3D28
:104BDC00303B666F7228653D303B653C642E743B00
:104BEC002B2B6529625B652B632E745D3D632E61F7
:104BFC006D28302C645B655D2C622C652C302C632D
:104C0C002E74293B622E733D303B622E636C616DBA
:104C1C007028293B696628746869732E73213D617D
:104C2C002E7329426967496E74656765722E5A4501
:104C3C00524F2E737562546F28622C62293B7D662D
:104C4C00756E6374696F6E20626E705371756172EC
:104C5C0065546F2861297B76617220623D746869A6
:104C6C00732E61627328293B76617220633D612E3D
:104C7C00743D322A622E743B7768696C65282D2D41
:104C8C00633E3D3029615B635D3D303B666F72284E
:104C9C00633D303B633C622E742D313B2B2B6329DF
:104CAC007B76617220643D622E616D28632C625BA1
:104CBC00635D2C612C322A632C302C31293B6966C4
:104CCC002828615B632B622E745D2B3D622E616D17
:104CDC0028632B312C322A625B635D2C612C322AC7
:104CEC00632B312C642C622E742D632D3129293EBB
:104CFC003D622E4456297B615B632B622E745D2DC5
:104D0C003D622E44563B615B632B622E742B315DEE
:104D1C003D313B7D7D696628612E743E3029615B97
:104D2C00612E742D315D2B3D622E616D28632C62DA
:104D3C005B635D2C612C322A632C302C31293B6156
:104D4C002E733D303B612E636C616D7028293B7D69
:104D5C0066756E6374696F6E20626E70446976520C
:104D6C00656D546F28612C622C63297B76617220EF
:104D7C00643D612E61627328293B696628642E7438
:104D8C003C3D302972657475726E3B76617220659C
:104D9C003D746869732E61627328293B69662865C6
:104DAC002E743C642E74297B69662862213D6E75D5
:104DBC006C6C29622E66726F6D496E742830293BBB
:104DCC0069662863213D6E756C6C29746869732E55
:104DDC00636F7079546F2863293B72657475726EBA
:104DEC003B7D696628633D3D6E756C6C29633D6E39
:104DFC00626928293B76617220663D6E62692829BA
:104E0C002C673D746869732E732C683D612E733B5F
:104E1C0076617220693D746869732E44422D6E620E
:104E2C0069747328645B642E742D315D293B69664B
:104E3C0028693E30297B642E6C5368696674546F04
:104E4C0028692C66293B652E6C5368696674546F0F
:104E5C0028692C63293B7D656C73657B642E636FBD
:104E6C007079546F2866293B652E636F7079546F87
:104E7C002863293B7D766172206A3D662E743B76F1
:104E8C006172206B3D665B6A2D315D3B6966286BF8
:104E9C003D3D302972657475726E3B766172206C83
:104EAC003D6B2A28313C3C746869732E4631292BA2
:104EBC0028286A3E31293F665B6A2D325D3E3E747E
:104ECC006869732E46323A30293B766172206D3D0B
:104EDC00746869732E46562F6C2C6E3D28313C3C01
:104EEC00746869732E4631292F6C2C6F3D313C3C14
:104EFC00746869732E46323B76617220703D632E66
:104F0C00742C713D702D6A2C723D28623D3D6E757E
:104F1C006C6C293F6E626928293A623B662E646C80
:104F2C005368696674546F28712C72293B69662822
:104F3C00632E636F6D70617265546F2872293E3DEC
:104F4C0030297B635B632E742B2B5D3D313B632ED1
:104F5C00737562546F28722C63293B7D42696749D3
:104F6C006E74656765722E4F4E452E646C5368697E
:104F7C006674546F286A2C72293B722E73756254B6
:104F8C006F28662C66293B7768696C6528662E74D9
:104F9C003C6A29665B662E742B2B5D3D303B776833
:104FAC00696C65282D2D713E3D30297B7661722010
:104FBC00733D28635B2D2D705D3D3D6B293F7468FF
:104FCC0069732E444D3A4D6174682E666C6F6F7226
:104FDC0028635B705D2A6D2B28635B702D315D2B14
:104FEC006F292A6E293B69662828635B705D2B3D0F
:104FFC00662E616D28302C732C632C712C302C6A2E
:10500C0029293C73297B662E646C53686966745439
:10501C006F28712C72293B632E737562546F287242
:10502C002C63293B7768696C6528635B705D3C2D4C
:10503C002D7329632E737562546F28722C63293B70
:10504C007D7D69662862213D6E756C6C297B632EB3
:10505C0064725368696674546F286A2C62293B69C0
:10506C00662867213D6829426967496E74656765E2
:10507C00722E5A45524F2E737562546F28622C62F1
:10508C00293B7D632E743D6A3B632E636C616D70AE
:10509C0028293B696628693E3029632E725368695A
:1050AC006674546F28692C63293B696628673C3009
:1050BC0029426967496E74656765722E5A45524F6D
:1050CC002E737562546F28632C63293B7D66756E55
:1050DC006374696F6E20626E4D6F642861297B76F4
:1050EC00617220623D6E626928293B746869732E77
:1050FC0061627328292E64697652656D546F28613C
:10510C002C6E756C6C2C62293B696628746869730B
:10511C002E733C302626622E636F6D70617265545F
:10512C006F28426967496E74656765722E5A4552DD
:10513C004F293E3029612E737562546F28622C62A0
:10514C00293B72657475726E20623B7D66756E6369
:10515C0074696F6E20436C61737369632861297B7A
:10516C00746869732E6D3D613B7D66756E63746901
:10517C006F6E2063436F6E766572742861297B694C
:10518C006628612E733C307C7C612E636F6D706180
:10519C007265546F28746869732E6D293E3D3029F1
:1051AC0072657475726E20612E6D6F6428746869F7
:1051BC00732E6D293B656C73652072657475726E08
:1051CC0020613B7D66756E6374696F6E20635265FA
:1051DC00766572742861297B72657475726E2061B4
:1051EC003B7D66756E6374696F6E20635265647582
:1051FC0063652861297B612E64697652656D546FF5
:10520C0028746869732E6D2C6E756C6C2C61293B3F
:10521C007D66756E6374696F6E20634D756C546F2B
:10522C0028612C622C63297B612E6D756C746970FE
:10523C006C79546F28622C63293B746869732E72E5
:10524C0065647563652863293B7D66756E63746957
:10525C006F6E2063537172546F28612C62297B61CD
:10526C002E737175617265546F2862293B7468697D
:10527C00732E7265647563652862293B7D436C618E
:10528C00737369632E70726F746F747970652E63AB
:10529C006F6E766572743D63436F6E766572743BA8
:1052AC00436C61737369632E70726F746F74797071
:1052BC00652E7265766572743D635265766572749F
:1052CC003B436C61737369632E70726F746F747986
:1052DC0070652E7265647563653D635265647563B4
:1052EC00653B436C61737369632E70726F746F747A
:1052FC007970652E6D756C546F3D634D756C546F84
:10530C003B436C61737369632E70726F746F747945
:10531C0070652E737172546F3D63537172546F3B91
:10532C0066756E6374696F6E20626E70496E76443A
:10533C006967697428297B696628746869732E7497
:10534C003C312972657475726E20303B7661722027
:10535C00613D746869735B305D3B69662828612622
:10536C0031293D3D302972657475726E20303B7663
:10537C00617220623D6126333B623D28622A2832ED
:10538C002D286126307866292A62292926307866EC
:10539C003B623D28622A28322D28612630786666C9
:1053AC00292A62292926307866663B623D28622AC2
:1053BC0028322D2828286126307866666666292AC8
:1053CC006229263078666666662929292630786631
:1053DC006666663B623D28622A28322D612A622568
:1053EC00746869732E4456292925746869732E4490
:1053FC00563B72657475726E28623E30293F746834
:10540C0069732E44562D623A2D623B7D66756E6330
:10541C0074696F6E204D6F6E74676F6D657279284D
:10542C0061297B746869732E6D3D613B7468697387
:10543C002E6D703D612E696E7644696769742829FA
:10544C003B746869732E6D706C3D746869732E6D56
:10545C0070263078376666663B746869732E6D709B
:10546C00683D746869732E6D703E3E31353B7468CF
:10547C0069732E756D3D28313C3C28612E44422DBC
:10548C00313529292D313B746869732E6D74323D89
:10549C00322A612E743B7D66756E6374696F6E2063
:1054AC006D6F6E74436F6E766572742861297B76AE
:1054BC00617220623D6E626928293B612E616273C4
:1054CC0028292E646C5368696674546F2874686953
:1054DC00732E6D2E742C62293B622E646976526594
:1054EC006D546F28746869732E6D2C6E756C6C2CF2
:1054FC0062293B696628612E733C302626622E6336
:10550C006F6D70617265546F28426967496E74657E
:10551C006765722E5A45524F293E3029746869735B
:10552C002E6D2E737562546F28622C62293B726546
:10553C007475726E20623B7D66756E6374696F6EF6
:10554C00206D6F6E745265766572742861297B7656
:10555C00617220623D6E626928293B612E636F7017
:10556C0079546F2862293B746869732E726564756F
:10557C0063652862293B72657475726E20623B7D8F
:10558C0066756E6374696F6E206D6F6E74526564B0
:10559C007563652861297B7768696C6528612E7451
:1055AC003C3D746869732E6D743229615B612E7495
:1055BC002B2B5D3D303B666F722876617220623D0D
:1055CC00303B623C746869732E6D2E743B2B2B62DE
:1055DC00297B76617220633D615B625D2630783792
:1055EC006666663B76617220643D28632A7468693E
:1055FC00732E6D706C2B282828632A746869732E9F
:10560C006D70682B28615B625D3E3E3135292A74D2
:10561C006869732E6D706C2926746869732E756DAC
:10562C00293C3C3135292926612E444D3B633D6292
:10563C002B746869732E6D2E743B615B635D2B3D1F
:10564C00746869732E6D2E616D28302C642C612C5E
:10565C00622C302C746869732E6D2E74293B77681C
:10566C00696C6528615B635D3E3D612E4456297B08
:10567C00615B635D2D3D612E44563B615B2B2B635F
:10568C005D2B2B3B7D7D612E636C616D7028293BFE
:10569C00612E64725368696674546F2874686973F8
:1056AC002E6D2E742C61293B696628612E636F6DFB
:1056BC0070617265546F28746869732E6D293E3D54
:1056CC003029612E737562546F28746869732E6D5E
:1056DC002C61293B7D66756E6374696F6E206D6FEE
:1056EC006E74537172546F28612C62297B612E7316
:1056FC007175617265546F2862293B746869732EE9
:10570C007265647563652862293B7D66756E63748A
:10571C00696F6E206D6F6E744D756C546F28612CB3
:10572C00622C63297B612E6D756C7469706C795475
:10573C006F28622C63293B746869732E72656475DB
:10574C0063652863293B7D4D6F6E74676F6D657261
:10575C00792E70726F746F747970652E636F6E76BC
:10576C006572743D6D6F6E74436F6E766572743BCB
:10577C004D6F6E74676F6D6572792E70726F746F8A
:10578C00747970652E7265766572743D6D6F6E748A
:10579C005265766572743B4D6F6E74676F6D657292
:1057AC00792E70726F746F747970652E7265647572
:1057BC0063653D6D6F6E745265647563653B4D6FCB
:1057CC006E74676F6D6572792E70726F746F747909
:1057DC0070652E6D756C546F3D6D6F6E744D756C80
:1057EC00546F3B4D6F6E74676F6D6572792E70726E
:1057FC006F746F747970652E737172546F3D6D6F29
:10580C006E74537172546F3B66756E6374696F6E10
:10581C0020626E7049734576656E28297B726574BB
:10582C0075726E2828746869732E743E30293F286F
:10583C00746869735B305D2631293A746869732E1C
:10584C0073293D3D303B7D66756E6374696F6E20C8
:10585C00626E7045787028612C62297B69662861BC
:10586C003E307866666666666666667C7C613C3150
:10587C002972657475726E20426967496E7465672A
:10588C0065722E4F4E453B76617220633D6E6269A8
:10589C0028292C643D6E626928292C653D622E6393
:1058AC006F6E766572742874686973292C663D6E08
:1058BC00626974732861292D313B652E636F707991
:1058CC00546F2863293B7768696C65282D2D663EDB
:1058DC003D30297B622E737172546F28632C6429BE
:1058EC003B69662828612628313C3C6629293E30D4
:1058FC0029622E6D756C546F28642C652C63293BC2
:10590C00656C73657B76617220673D633B633D64B8
:10591C003B643D673B7D7D72657475726E20622EB3
:10592C007265766572742863293B7D66756E637447
:10593C00696F6E20626E4D6F64506F77496E74287C
:10594C00612C62297B76617220633B696628613C1D
:10595C003235367C7C622E69734576656E28292932
:10596C00633D6E657720436C6173736963286229AC
:10597C003B656C736520633D6E6577204D6F6E746F
:10598C00676F6D6572792862293B72657475726EEA
:10599C0020746869732E65787028612C63293B7DAF
:1059AC00426967496E74656765722E70726F746FA9
:1059BC00747970652E636F7079546F3D626E7043AD
:1059CC006F7079546F3B426967496E746567657295
:1059DC002E70726F746F747970652E66726F6D496C
:1059EC006E743D626E7046726F6D496E743B4269A7
:1059FC0067496E74656765722E70726F746F747917
:105A0C0070652E66726F6D537472696E673D626E4F
:105A1C007046726F6D537472696E673B4269674969
:105A2C006E74656765722E70726F746F74797065C1
:105A3C002E636C616D703D626E70436C616D703B7A
:105A4C00426967496E74656765722E70726F746F08
:105A5C00747970652E646C5368696674546F3D621A
:105A6C006E70444C5368696674546F3B4269674965
:105A7C006E74656765722E70726F746F7479706571
:105A8C002E64725368696674546F3D626E70445232
:105A9C005368696674546F3B426967496E746567F5
:105AAC0065722E70726F746F747970652E6C53689A
:105ABC00696674546F3D626E704C536869667454B9
:105ACC006F3B426967496E74656765722E70726FC1
